:1000000000000120F90D0000690E00006B0E0000D9
:100010006D0E00006F0E0000710E00000000000069
:10002000000000000000000000000000730E00004F
:10003000750E000000000000770E0000790E000031
:100040007B0E00007B0E00007B0E00007B0E00008C
:100050007B0E00007B0E00007B0E00007B0E00007C
:100060007B0E00007B0E00007B0E00007B0E00006C
:100070007B0E00007B0E00007B0E00007B0E00005C
:100080007B0E00007B0E00007B0E00007B0E00004C
:100090007B0E00007B0E00007B0E00007B0E00003C
:1000A0007B0E00007B0E00007B0E00007B0E00002C
:1000B0007B0E00007B0E000000000000000000002E
:1000C0007B0E00007B0E00007B0E00007B0E00000C
:1000D0007B0E00007B0E00007B0E00000000000085
:1000E0000000000000000000000000000000000010
:1000F0000000000000000000000000000000000000
:1001000000000000000000000000000000000000EF
:1001100000000000000000000000000000000000DF
:1001200000000000000000000000000000000000CF
:1001300000000000000000000000000000000000BF
:1001400000000000000000000000000000000000AF
:10015000000000000000000000000000000000009F
:10016000000000000000000000000000000000008F
:10017000000000000000000000000000000000007F
:10018000000000000000000000000000000000006F
:10019000000000000000000000000000000000005F
:1001A000000000000000000000000000000000004F
:1001B000000000000000000000000000000000003F
:1001C000000000000000000000000000000000002F
:1001D000000000000000000000000000000000001F
:1001E000000000000000000000000000000000000F
:1001F00000000000000000000000000000000000FF
:1002000011000000120000001400000013000000A4
:0402100010000020BA
:08021400900000000100000051
:10021C000348044B834202D0034B03B11847704789
:10022C00380400203804002000000000054806496E
:10023C000B1AD90F01EBA301491002D0034B03B1E8
:10024C0018477047380400203804002000000000D4
:10025C0010B5064C237843B9FFF7DAFF044B13B102
:10026C000448AFF300800123237010BD3804002034
:10027C00000000001411000008B5044B1BB1044928
:10028C000448AFF30080BDE80840CFE70000000051
:10029C003C04002014110000A3F5803A704700BF05
:1002AC00154B002B08BF114B9D46FFF7F5FF0021A6
:1002BC008B460F461148124A121A00F029FE0C4BBD
:1002CC00002B00D098470B4B002B00D098470020F8
:1002DC00002104000D000B4800F0CAFD00F0F4FDF5
:1002EC002000290000F02AF800F0C8FD00000800EA
:1002FC000000000000000000000001203804002075
:10030C0058040020A90E000080B483B000AF0D2368
:10031C007B600AE04FF0A0427B6803F5E0730C2190
:10032C0042F823107B6801337B607B68102BF1DD76
:10033C0000BF00BF0C37BD4680BC704790B58DB078
:10034C0000AF1123FB621EE04FF0A043D3F8183529
:10035C000121FA6A01FA02F211464FF0A0420B4356
:10036C00C2F818354FF0A043D3F804350121FA6ACE
:10037C0001FA02F211464FF0A0420B43C2F80435C9
:10038C00FB6A0133FB62FB6A142BDDDDFFF7BCFF5C
:10039C000023BB62724B3C460FCB84E80F00714BC1
:1003AC001B78002B02D0012B3AD077E06E4B1B68E8
:1003BC005A1C6D490A6003F00103002B18D111235C
:1003CC007B6211E04FF0A043D3F8043501217A6A27
:1003DC0001FA02F2D24311464FF0A0420B40C2F890
:1003EC0004357B6A01337B627B6A142BEADD55E0B2
:1003FC0011233B6210E04FF0A043D3F804350121E8
:10040C003A6A01FA02F211464FF0A0420B43C2F8CD
:10041C0004353B6A01333B623B6A142BEBDD3DE058
:10042C00514B1B685A1C50490A605A4203F0030393
:10043C0002F0030258BF53429B0030333B4453F845
:10044C00303C3B611123FB6124E0FA693B699A4221
:10045C000FD14FF0A043D3F804350121FA6901FA0A
:10046C0002F2D24311464FF0A0420B40C2F80435C1
:10047C000DE04FF0A043D3F804350121FA6901FADD
:10048C0002F211464FF0A0420B43C2F80435FB694F
:10049C000133FB61FB69142BD7DD00BF324B1B68AA
:1004AC0003F00F03002B12D12E4B1B78002B02D024
:1004BC00012B04D007E02B4B01221A7008E0294BCA
:1004CC0000221A7004E0274B01221A7000E000BFD2
:1004DC004FF0A043D3F8103503F40053002B17D181
:1004EC001123BB6111E04FF0A043D3F80435012177
:1004FC00BA6901FA02F2D24311464FF0A0420B4006
:10050C00C2F80435BB690133BB61BB69142BEADD4E
:10051C004FF0A043D3F8103503F48043002B16D1D1
:10052C0011237B6110E04FF0A043D3F80435012177
:10053C007A6901FA02F211464FF0A0420B43C2F85D
:10054C0004357B6901337B617B69142BEBDD074B35
:10055C00BB62BB6A013BBB62BB6A002BF9D11EE7D5
:10056C0000020000000000205404002020A107001D
:10057C0080B483B000AF1E4B1B68B3F1FF3F0AD1B0
:10058C001C4B1B68DBB27B601B4B1B681B0903F00D
:10059C000F033B6005E0164B1B687B60174B1B6819
:1005AC003B607B68062B1DD13B68033B042B17D8A3
:1005BC0001A252F823F000BFD9050000DD050000B0
:1005CC00E1050000E5050000E905000001230AE053
:1005DC00012308E0012306E0012304E0012302E0EB
:1005EC00012300E0002318460C37BD4680BC704741
:1005FC0030010010E00F00F0E80F00F034010010A3
:10060C0080B483B000AF184B1B68DBB27B60174B18
:10061C001B681B0903F00F033B607B68062B1DD185
:10062C003B68033B042B17D801A252F823F000BF00
:10063C005106000055060000590600005D0600003A
:10064C006106000001230AE0002308E0002306E015
:10065C00002304E0002302E0002300E000231846FE
:10066C000C37BD4680BC7047E00F00F0E80F00F07F
:10067C0080B483B000AF1E4B1B68B3F1FF3F0AD1AF
:10068C001C4B1B68DBB27B601B4B1B681B0903F00C
:10069C000F033B6005E0164B1B687B60174B1B6818
:1006AC003B607B68062B1DD13B68033B042B17D8A2
:1006BC0001A252F823F000BFD9060000DD060000AD
:1006CC00E1060000E5060000E906000001230AE04F
:1006DC00012308E0012306E0012304E0012302E0EA
:1006EC00012300E0002318460C37BD4680BC704740
:1006FC0030010010E00F00F0E80F00F034010010A2
:10070C0080B483B000AF184B1B68DBB27B60174B17
:10071C001B681B0903F00F033B607B68062B1DD184
:10072C003B68033B042B17D801A252F823F000BFFF
:10073C005107000055070000590700005D07000035
:10074C006107000001230AE0002308E0002306E013
:10075C00002304E0002302E0002300E000231846FD
:10076C000C37BD4680BC7047E00F00F0E80F00F07E
:10077C0080B483B000AF1E4B1B68B3F1FF3F0AD1AE
:10078C001C4B1B68DBB27B601B4B1B681B0903F00B
:10079C000F033B6005E0164B1B687B60174B1B6817
:1007AC003B607B68062B1DD13B68033B042B17D8A1
:1007BC0001A252F823F000BFD9070000DD070000AA
:1007CC00E1070000E5070000E907000001230AE04B
:1007DC00012308E0012306E0012304E0012302E0E9
:1007EC00012300E0002318460C37BD4680BC70473F
:1007FC0030010010E00F00F0E80F00F034010010A1
:10080C0080B483B000AF184B1B68DBB27B60174B16
:10081C001B681B0903F00F033B607B68062B1DD183
:10082C003B68033B042B17D801A252F823F000BFFE
:10083C005108000055080000590800005D08000030
:10084C006108000001230AE0002308E0002306E011
:10085C00002304E0002302E0002300E000231846FC
:10086C000C37BD4680BC7047E00F00F0E80F00F07D
:10087C0080B483B000AF184B1B68DBB27B60174BA6
:10088C001B681B0903F00F033B607B68062B1DD113
:10089C003B68033B042B17D801A252F823F000BF8E
:1008AC00C1080000C5080000C9080000CD08000000
:1008BC00D108000001230AE0002308E0002306E031
:1008CC00002304E0002302E0002300E0002318468C
:1008DC000C37BD4680BC7047E00F00F0E80F00F00D
:1008EC0080B483B000AF1E4B1B68B3F1FF3F0AD13D
:1008FC001C4B1B68DBB27B601B4B1B681B0903F09A
:10090C000F033B6005E0164B1B687B60174B1B68A5
:10091C003B607B68062B1DD13B68033B042B17D82F
:10092C0001A252F823F000BF490900004D09000054
:10093C0051090000550900005909000000230AE084
:10094C00002308E0012306E0012304E0012302E078
:10095C00012300E0002318460C37BD4680BC7047CD
:10096C0030010010E00F00F0E80F00F0340100102F
:10097C0080B483B000AF1E4B1B68B3F1FF3F0AD1AC
:10098C001C4B1B68DBB27B601B4B1B681B0903F009
:10099C000F033B6005E0164B1B687B60174B1B6815
:1009AC003B607B68062B1DD13B68033B042B17D89F
:1009BC0001A252F823F000BFD9090000DD090000A4
:1009CC00E1090000E5090000E909000001230AE043
:1009DC00012308E0012306E0012304E0012302E0E7
:1009EC00012300E0002318460C37BD4680BC70473D
:1009FC0030010010E00F00F0E80F00F0340100109F
:100A0C0080B483B000AF1E4B1B68B3F1FF3F0AD11B
:100A1C001C4B1B68DBB27B601B4B1B681B0903F078
:100A2C000F033B6005E0164B1B687B60174B1B6884
:100A3C003B607B68062B1DD13B68033B042B17D80E
:100A4C0001A252F823F000BF690A00006D0A0000F1
:100A5C00710A0000750A0000790A000001230AE0FF
:100A6C00012308E0012306E0012304E0012302E056
:100A7C00012300E0002318460C37BD4680BC7047AC
:100A8C0030010010E00F00F0E80F00F0340100100E
:100A9C0080B483B000AF164B1B687B60154B1B6892
:100AAC003B607B68062B1DD13B68033B042B17D89E
:100ABC0001A252F823F000BFD90A0000DD0A0000A1
:100ACC00E10A0000E50A0000E90A000000230AE040
:100ADC00002308E0002306E0012304E0012302E0E8
:100AEC00012300E0002318460C37BD4680BC70473C
:100AFC00300100103401001080B483B000AF164BED
:100B0C001B687B60154B1B683B607B68062B1DD1FB
:100B1C003B68033B042B17D801A252F823F000BF0B
:100B2C00410B0000450B0000490B00004D0B000071
:100B3C00510B000000230AE0002308E0002306E02C
:100B4C00002304E0012302E0012300E00023184607
:100B5C000C37BD4680BC70473001001034010010CA
:100B6C0080B500AFFFF7C8FF0346002B07D04FF04E
:100B7C0010234FF08042D3F80832C2F8583500BF2A
:100B8C0080BD000080B400AF034B044A1A6000BF64
:100B9C00BD4680BC704700BF040000200090D0030D
:100BAC0080B500AFFFF7E4FC0346002B06D07F4B6B
:100BBC001B681B0A7E4A03F01F031360FFF720FD1E
:100BCC000346002B02D07B4B7B4A1A60FFF750FD8B
:100BDC000346002B06D0794B1B685B0B784A03F05D
:100BEC0007031360FFF78CFD0346002B05D0754BF4
:100BFC00DB68744A23F08073D360FFF7B9FD0346BA
:100C0C00002B0ED04FF080430022C3F80C214FF084
:100C1C0080430022C3F810214FF080430022C3F818
:100C2C003825FFF7EDFD0346002B02D0664B03225F
:100C3C001A60FFF71DFE0346002B0BD0634B0522F9
:100C4C001A60634B01221A60624B00221A60624BDD
:100C5C003F221A60FFF744FE0346002B76D04FF07C
:100C6C0080535E4AD3F80434C2F820354FF08053D9
:100C7C005A4AD3F80834C2F824354FF08053574AF7
:100C8C00D3F80C34C2F828354FF08053534AD3F8BC
:100C9C001034C2F82C354FF08053504AD3F814342A
:100CAC00C2F830354FF080534C4AD3F81834C2F8A0
:100CBC0034354FF08053494AD3F81C34C2F84035D0
:100CCC004FF08053454AD3F82034C2F844354FF0E6
:100CDC008053424AD3F82434C2F848354FF080533D
:100CEC003E4AD3F82834C2F84C354FF080533B4A77
:100CFC00D3F82C34C2F850354FF08053374AD3F820
:100D0C003034C2F854354FF08053344AD3F834346D
:100D1C00C2F860354FF08053304AD3F83834C2F8FB
:100D2C0064354FF080532D4AD3F83C34C2F8683503
:100D3C004FF08053294AD3F84034C2F86C354FF049
:100D4C008053264AD3F84434C2F87035FFF710FEAE
:100D5C000346002B05D0224B1B68224A03F04F039D
:100D6C001360FFF74DFE0346002B0DD04FF0804370
:100D7C00D3F8003403F00103002B05D04FF080436F
:100D8C006FF00102C3F80024FFF782FE0346002B2C
:100D9C0005D0154B1B68144A43F480631360FFF7AE
:100DAC00DFFEFFF7EFFE00BF80BD00BF2403001085
:100DBC004035014074C007400DF0ADBA440200103C
:100DCC003C050040F0ED00E0A0050040105600404E
:100DDC0088560040185600401456004000C0004091
:100DEC0058020010E40E00403C1700400F49104A16
:100DFC00104B00F010F81049104A114B00F00BF892
:100E0C001049114A114B00F006F81149114A124BC6
:100E1C0000F001F806E0521A03DD043A98588850A5
:100E2C00FBDC7047FFF7BCFEFFF73AFA000000202E
:100E3C003804002060110000380400203804002021
:100E4C009815000038040020380400209815000084
:100E5C00380400203804002098150000FEE7FEE757
:100E6C00FEE7FEE7FEE7FEE7FEE7FEE7FEE7FEE74E
:100E7C00002301461A46184600F09CB808B500211C
:100E8C00044600F0CBF8044B1868C36B03B19847C9
:100E9C00204600F025F900BF1002000038B5084BC1
:100EAC00084D5B1B9C1007D0043B1D44013C55F8BE
:100EBC0004399847002CF9D1BDE8384000F01CB932
:100ECC00141100001011000070B50D4E0D4D761B65
:100EDC00B61006D0002455F8043B01349847A642BE
:100EEC00F9D1094E094D761B00F0FCF8B61006D06E
:100EFC00002455F8043B01349847A642F9D170BD43
:100F0C00FC100000FC10000004110000FC1000009C
:100F1C00830730B548D0541E002A3FD0CAB20346CE
:100F2C0001E0013C3AD303F8012B9D07F9D1032CC6
:100F3C002DD9CDB245EA05250F2C45EA054536D904
:100F4C00A4F1100222F00F0C03F1200EE6444FEA3C
:100F5C00121C03F1100242E9045542E90255103209
:100F6C007245F8D10CF1010214F00C0F03EB0212D4
:100F7C0004F00F0C13D0ACF1040323F0030304337F
:100F8C00134442F8045B9342FBD10CF003042CB1E4
:100F9C00CAB21C4403F8012B9C42FBD130BD644601
:100FAC001346002CF4D1F9E703461446BFE71A4662
:100FBC00A446E0E770B4184C2568D5F848411CB33A
:100FCC0065681F2D25DC38B9AB1C0135656044F80C
:100FDC002310002070BC704704EB850C0228CCF861
:100FEC008820D4F888614FF0010202FA05F246EA33
:100FFC000206C4F88861CCF80831E5D1D4F88C31FC
:10100C001343C4F88C31DFE705F5A674C5F84841E5
:10101C00D6E74FF0FF30DDE7100200002DE9F04F6E
:10102C00294B1F6883B0D7F848610190B6B18B4645
:10103C004FF001084FF000097468651E0ED401349E
:10104C0006EB8404BBF1000F0BD0D4F800315B45E8
:10105C0007D0013D6B1CA4F10404F3D103B0BDE82F
:10106C00F08F73682268013BAB420CBF7560C4F80B
:10107C000090002AEDD0D6F88801D6F804A008FA22
:10108C0005F101420BD190477268524512D1D7F845
:10109C004831B342DDD01E46002ECDD1DEE7D6F866
:1010AC008C0101420BD1D4F88010019890477268E2
:1010BC005245ECD0D7F84861002EBDD1CEE7D4F81C
:1010CC0080009047E0E700BF10020000024B13B114
:1010DC000248FFF7CDBE704700000000A90E0000CB
:1010EC00FEE700BFF8B500BFF8BC08BC9E467047D1
:1010FC00D910000085020000F8B500BFF8BC08BC90
:0C110C009E4670475D02000000000000DD
:1011180060110000000000200E010000981500007A
:101128003804002000000000981500003804002052
:10113800000000009815000038040020000000009E
:1011480038040020080000005804002000000000B7
:08115800580400200000000013
:10116000010000000090D0031000002000000000EB
:1011700000000000FC02002064030020CC030020DB
:10118000000000000000000000000000000000005F
:10119000000000000000000000000000000000004F
:1011A000000000000000000000000000000000003F
:1011B000000000000000000000000000000000002F
:1011C000000000000000000000000000000000001F
:1011D000000000000000000000000000000000000F
:1011E00000000000000000000000000000000000FF
:1011F00000000000000000000000000000000000EF
:1012000000000000000000000000000000000000DE
:1012100000000000000000000100000000000000CD
:101220000E33CDAB34126DE6ECDE05000B00000092
:1012300000000000000000000000000000000000AE
:10124000000000000000000000000000000000009E
:10125000000000000000000000000000000000008E
:10126000000000000000000000000000000000007E
:0400000300000DF9F3
:00000001FF
